:020000040800F2
:1000000068080020C5010008CD010008CF010008E4
:10001000D1010008D3010008D5010008000000004C
:10002000000000000000000000000000D7010008F0
:10003000D901000800000000DB010008E10400080D
:10004000DF010008DF010008DF010008DF01000810
:10005000DF010008DF010008DF010008DF01000800
:10006000DF010008DF010008DF010008DF010008F0
:10007000DF010008DF010008DF010008DF010008E0
:10008000DF010008DF010008DF010008DF010008D0
:10009000DF010008DF010008DF010008DF010008C0
:1000A000DF010008DF010008DF010008DF010008B0
:1000B000DF010008DF010008DF010008DF010008A0
:1000C000DF010008DF010008DF010008DF01000890
:1000D000DF01000871070008DF01000819080008A7
:1000E000DF010008DF010008DF01000800F002F86E
:1000F00000F059F814A696E8000CB244B344DA456F
:1001000001D100F050F8BAE80F000FA696E83000D1
:10011000A5EB040504EB0607AAEB0704A7F101070A
:100120004FEA15154FEA3414A4F10104AC4201D38F
:1001300000F039F813F0010F18BFFB1A43F0010368
:1001400000F001F8DBE71847540B0000740B0000C7
:10015000103A24BF78C878C1FAD8520724BF30C8F3
:1001600030C144BF04680C60704700007047000055
:100170000023002400250026103A28BF78C1FBD8B0
:10018000520728BF30C148BF0B6070471FB500F051
:10019000CDF804000020002100F050FD401C6060FC
:1001A0001FBD10B510BD00F09BF81146FFF7EEFF24
:1001B00000F0FAFB00F0BEF803B4FFF7F2FF03BC57
:1001C00000F0C6F80948804709480047FEE7FEE707
:1001D000FEE7FEE7FEE7FEE7FEE7FEE7FEE7FEE7F7
:1001E00004480549054A064B7047000025060008EB
:1001F000ED00000868020020680800206804002064
:10020000680400202DE9F0410E460546002400E078
:10021000641C285D00F04FF80746305D00F04BF895
:10022000381A02D1295D0029F2D1BDE8F081000021
:100230004FF0013C50F8042B51F8043B9A4221D175
:10024000A2EB0C03934313EACC1317D150F8042B01
:1002500051F8043B9A4215D1A2EB0C03934313EAE5
:10026000CC130BD150F8042B51F8043B9A4209D11E
:10027000A2EB0C03934313EACC13DBD04FF0000046
:10028000704700BFD01A01BAB1FA81F101F018012C
:1002900022FA01F0CB40DBB2C0B2C01AC1F120019A
:1002A0002CFA01F3D11A914311EAC311E6D1704738
:1002B00070477047704710B5044600F009F80068B1
:1002C000005DC00602D504F1200010BD204610BD1F
:1002D00010B500F02BF8001D10BD00BF6109000033
:1002E000754600F031F8AE4605006946534620F0E9
:1002F0000700854618B020B5FFF772FFBDE8204023
:100300004FF000064FF000074FF000084FF0000BD1
:10031000AC46ACE8C009ACE8C009ACE8C009ACE840
:10032000C00921F007018D46704700000048704762
:100330003000002010B50446AFF300802046BDE831
:100340001040FFF739BF0000004870471000002040
:1003500001491820ABBEFEE72600020070470000EE
:1003600080B500F001F880BD84B0002003900290B9
:1003700041F20001C4F20201086840F480300860D4
:10038000FFE741F20000C4F20200006800F4003010
:100390000290039801300390FFE70299002001903A
:1003A00039B9FFE70398B0F5A06018BF01200190AC
:1003B000FFE70198C0070028E3D1FFE741F2000002
:1003C000C4F2020000688003002803D5FFE7012083
:1003D000029002E000200290FFE70298012851D12C
:1003E000FFE742F20001C4F20201086840F0100089
:1003F0000860086820F007000860086840F0020004
:10040000086041F20401C4F202010091086808602A
:1004100008680860086840F480600860086820F494
:100420007C100860086840F4E810086041F20001A0
:10043000C4F20201086840F080700860FFE741F2F2
:100440000000C4F2020000688001002801D4FFE728
:10045000F5E741F20401C4F20201086820F003004C
:100460000860086840F002000860FFE741F20400FD
:10047000C4F20200006800F00C00082801D0FFE779
:10048000F4E700E0FFE704B07047000080B582B0F9
:10049000009000980138B0F1807F03D3FFE701207E
:1004A000019019E0009801384EF21401CEF20001DB
:1004B00008604FF0FF300F2100F01EFA4EF21801D5
:1004C000CEF20001002008604EF21002CEF20002CF
:1004D000072111600190FFE7019802B080BD000084
:1004E00040F26420C2F20000006840B1FFE740F231
:1004F0006421C2F20001086801380860FFE7704714
:1005000084B0002003900290019041F20400C4F2F4
:100510000200006800F00C0003900398009040B1C6
:10052000FFE7009804280ED0FFE70098082814D0B1
:1005300056E040F20001C2F2000141F20020C0F298
:100540007A00086056E040F20001C2F2000141F278
:100550000020C0F27A0008604CE041F20400C4F2CE
:100560000200016801F470110291006800F480300B
:1005700001900299022000EB91400290019860B92D
:10058000FFE7029840F60011C0F23D01484340F2F7
:100590000001C2F20001086021E041F20400C4F24F
:1005A00002000068800300280CD5FFE7029840F69F
:1005B0000011C0F23D01484340F20001C2F20001C7
:1005C00008600BE0029841F20021C0F27A01484332
:1005D00040F20001C2F200010860FFE7FFE709E016
:1005E00040F20001C2F2000141F20020C0F27A00A4
:1005F0000860FFE741F20400C4F202000068C0B2E4
:10060000010940F66840C0F60000405C0390039A80
:1006100040F20001C2F200010868D040086004B056
:100620007047000080B541F20002C4F20202106877
:1006300040F00100106041F20401C4F202010868B8
:100640000023CFF6FF031840086010684FF6FF73D1
:10065000CFF6F66318401060106820F48020106018
:10066000086820F4FE00086041F20801C4F20201AB
:100670004FF41F000860FFF773FE4EF60851CEF2EC
:1006800000014FF00060086080BD000080B584B0BC
:10069000ADF80E00029100200190FFE70298019949
:1006A000405C70B1FFE7BDF80E000299019A895CC9
:1006B00000F00AF8019801300190012000F050F993
:1006C000ECE704B080BD000081B0ADF802008DF809
:1006D0000110BDF80200012814D1FFE7FFE743F63F
:1006E0000000C4F20100008800F04000802801D121
:1006F000FFE7F4E79DF8010043F60401C4F20101AD
:10070000088019E0BDF80200022814D1FFE7FFE7D6
:1007100044F20040C4F20000008800F0400080284D
:1007200001D1FFE7F4E79DF8010044F20441C4F26F
:1007300000010880FFE7FFE7BDF80200032814D19D
:10074000FFE7FFE744F60000C4F20000008800F075
:100750004000802801D1FFE7F4E79DF8010044F64E
:100760000401C4F200010880FFE701B070470000F7
:1007700080B540F27000C2F2000040F20401C2F203
:100780000001FFF755FD18B1FFE700F02BF9FFE777
:1007900080BD000080B572B641F21801C4F20201BA
:1007A000086840F480400860086840F00400086071
:1007B00040F60401C4F20101086820F0F00008606E
:1007C000086840F0B0000860086820F470600860B5
:1007D000086840F48060086043F60801C4F2010133
:1007E00041F64C50088043F60C01C4F20101088820
:1007F00040F008000880088840F00400088008885D
:1008000040F400500880088840F02000088025202F
:1008100000F05AF862B680BD80B540F26A10C2F2AC
:10082000000040F20901C2F20001FFF7EBFC18B131
:10083000FFE700F043F9FFE780BD000080B572B626
:1008400041F21801C4F20201086840F00800086093
:1008500041F21C01C4F20201086840F480200860E3
:1008600040F60441C4F20101086820F470400860B9
:10087000086840F480400860086820F470600860F0
:10088000086840F43060086044F60801C4F20001D2
:1008900041F64C50088044F60C01C4F2000108886F
:1008A00040F008000880088840F0040008800888AC
:1008B00040F400500880088840F02000088027207D
:1008C00000F002F862B680BD81B08DF803009DF99A
:1008D000030000280ED4FFE79DF9031001F01F026A
:1008E000012090404A094EF20011CEF2000141F879
:1008F0002200FFE701B0704782B08DF80700009139
:100900009DF9070000280AD4FFE7009800019DF92F
:1009100007104EF20042CEF2000288540BE000981D
:1009200000019DF8071001F00F014EF61452CEF2AF
:1009300000028854FFE702B07047000080B5FFF75F
:10094000DFFD40F20000C2F2000000684DF6836156
:10095000C4F21B31A0FB0110800CFFF797FD80BD96
:1009600080B582B00190FFE70198411E019128B146
:10097000FFE74FF47A7000F003F8F5E702B080BDAE
:1009800081B00090009840F26421C2F2000108603A
:10099000FFE740F26420C2F20000006808B1FFE700
:1009A000F7E701B07047000080B582B000200190E9
:1009B000FFF7C4FFFFF7EEFEFFF740FF6420FFF7ED
:1009C000CFFF40F67841C0F600010120FFF75EFE40
:1009D00040F68841C0F600010320FFF757FEFFE70D
:1009E000FEE7000080B586B000F0D2F80020059048
:1009F000FFE7059863281BDCFFE73821C4F20001FC
:100A00004FF4E160088000200490FFE7049842F270
:100A1000BC61C0F20101884205DCFFE7FFE70498F2
:100A200001300490F2E7FFE7059801300590E0E718
:100A300064200390FFE7039801281BDBFFE73821C0
:100A4000C4F2000140F61170088000200290FFE718
:100A5000029842F2BC61C0F20101884205DCFFE766
:100A6000FFE7029801300290F2E7FFE703980138B0
:100A70000390E0E700200190FFE7019863281BDC6A
:100A8000FFE73821C4F2000141F21A70088000200B
:100A90000090FFE7009842F2BC61C0F20101884279
:100AA00005DCFFE7FFE7009801300090F2E7FFE781
:100AB000019801300190E0E706B080BD80B586B0B6
:100AC00000F08EF800200590FFE7059863281ADCF7
:100AD000FFE740F23841C4F200014FF4E1600880C2
:100AE00000200490FFE704984FF6AC71884205DCC3
:100AF000FFE7FFE7049801300490F4E7FFE705986B
:100B000001300590E1E764200390FFE70398012896
:100B10001ADBFFE740F23841C4F2000140F61170E1
:100B2000088000200290FFE702984FF6AC718842DF
:100B300005DCFFE7FFE7029801300290F4E7FFE7EA
:100B4000039801380390E1E700200190FFE7019846
:100B500063281ADCFFE740F23841C4F2000141F299
:100B60001A70088000200090FFE700984FF6AC71E3
:100B7000884205DCFFE7FFE7009801300090F4E7CA
:100B8000FFE7019801300190E1E706B080BD000069
:100B900041F21C01C4F20201086840F00100086043
:100BA0002821C4F200011B2008802C21C4F200017E
:100BB0004FF61C3008801821C4F20001088840F06C
:100BC000600008802021C4F20001088840F0010084
:100BD00008804FF08041088840F00100088070478D
:100BE00041F21C01C4F20201086840F002000860F2
:100BF00040F22841C4F200011B20088040F22C4141
:100C0000C4F200014FF61C30088040F21841C4F2D3
:100C10000001088840F06000088040F22041C4F2E2
:100C20000001088840F00100088040F20041C4F251
:100C30000001088840F001000880704710B50029C5
:100C40000AD00878002807D005487844FFF7F0FA62
:100C5000002801D0002010BD0248784410BD0000DB
:100C6000720000006A0000000000000000000000A8
:100C700001020304060708097465726D696E616CF0
:100C80002073657269616C007465726D696E616C68
:100C900020626C756574686F00000000D00D00085C
:100CA000000000201000000050010008E00D0008C6
:100CB000100000205808000070010008100100001A
:100CC00043000000F8FFFFFF00404040404040402C
:100CD000404041414141414040404040404040400F
:100CE00040404040404040404005020202020202B3
:100CF0000202020202020202022020202020202002
:100D00002020200202020202020290909090909015
:100D100010101010101010101010101010101010D3
:100D20001010101002020202020288888888888847
:100D30000808080808080808080808080808080833
:100D4000080808080202020240000000000000003B
:100D50000000000000000000000000000000000093
:100D60000000000000000000000000000000000083
:100D70000000000000000000000000000000000073
:100D80000000000000000000000000000000000063
:100D90000000000000000000000000000000000053
:100DA0000000000000000000000000000000000043
:100DB0000000000000000000000000000000000033
:100DC0000000000000000000000000000000000023
:100DD00000A24A0450574D310050574D32000000D8
:04000005080000ED02
:00000001FF
